:020000040800F2
:1000000048050020D5000008F50B00082D09000860
:1000100000000000000000000000000000000000E0
:10002000000000000000000000000000910E000829
:100030000000000000000000E10C0008550F00085F
:10004000E7000008E7000008E7000008E7000008F4
:10005000E7000008E7000008E7000008E7000008E4
:10006000E7000008E700000869010008E700000851
:10007000E7000008E7000008E7000008E7000008C4
:10008000E7000008E700000800000000E7000008A3
:10009000E7000008E7000008E7000008E7000008A4
:1000A000E7000008E7000008E700000871100008FA
:1000B000E700000800000000E70000080000000062
:1000C0000348854600F03EF800480047A526000892
:1000D000480500200448804704480047FEE7FEE743
:1000E000FEE7FEE7FEE7FEE7F50F0008C1000008A7
:1000F00030B50B46014600202022012409E00D46C0
:10010000D5409D4205D31D469540491B2546954047
:1001100040191546521E002DF1DC30BD70B500248B
:100120002546002801DA01244042002901DA012590
:100130004942FFF7DDFFAC4200D04042002C00D026
:10014000494270BD064C0125064E05E02046E36895
:1001500007C82B4398471034B442F7D3FFF7B4FFD6
:10016000EC3400080C35000810B5202000F06AF8C7
:10017000012802D1202000F001F810BD014948609B
:100180007047000000000240002904D002680123EB
:100190001A43026003E00268014B1A400260704794
:1001A000FEFF00000168254A114001600021016046
:1001B00041608160C1602249884208D120490839E4
:1001C00049680F2211431E4A083A516035E01C4924
:1001D0001431884208D11A4908394968F02211437C
:1001E000174A083A516028E015492831884209D158
:1001F0001349083949680F2212021143104A083A7C
:1002000051601AE00E493C31884209D10C49083945
:1002100049680F2212031143094A083A51600CE061
:1002200007495031884208D10549083949680F22E9
:1002300012041143024A083A51607047FEFF000061
:100240000800024001460020034A12680A4201D019
:10025000012000E00020704700000240002A03D087
:1002600003680B43036002E003688B43036070473D
:1002700010B5002202680D4B1A400C6A8B682343AC
:100280000C6923434C6923438C692343CC69234382
:100290004C6A23438C6A23431A430260CB68436051
:1002A0000B6883604B68C36010BD00000F80FFFFC8
:1002B000416070470346062106221448018814480D
:1002C0000288002B15D0012B1DD1002A06D1114820
:1002D000814201D1002070470120FCE7002906D1AE
:1002E0000C48824201D10120F5E70020F3E7AB2062
:1002F000F1E7002901D10020EDE7002A01D101201A
:10030000E9E7AB20E7E70020E5E700000070000820
:1003100000740008EEEE000010B504240B4800F055
:1003200011FA0446042C01D0204610BD00210748D4
:1003300000F04AFA0446042C01D02046F5E70448B0
:1003400000F000FA04462046EFE7000000700008C5
:1003500000740008FEB5062002900626002500273E
:1003600000200190401E009073480088029073485E
:1003700006880298002872D07149401829D0714926
:1003800040186DD1002E07D16B4800F0DBF9044610
:10039000042C1DD02046FEBD69484042864210D143
:1003A000654800F0CFF90446042C01D02046F2E75E
:1003B0000021624800F008FA0446042C08D02046C8
:1003C000E9E7FFF7A9FF0446042C01D02046E2E745
:1003D000AEE0002E38D1002523E05748C0886900E0
:1003E000594A515A884201D128B20090009885425A
:1003F00015D06900544A505A544900F023F901902D
:10040000019801280BD069004F4A505A4F4909887A
:1004100000F04EF90746042F01D03846BBE7681CB0
:1004200085B2112DD9DB0021434800F0CDF90446F7
:10043000042C01D02046AEE7404800F083F9044682
:10044000042C1ED02046A6E74148864212D13B48E4
:1004500000F078F90446042C03D020469BE711E015
:100460005EE00021344800F0AFF90446042C08D0C7
:10047000204690E7FFF750FF0446042C01D02046A9
:1004800089E755E0002E06D1FFF746FF0446042C0D
:1004900045D020467FE72E48864207D1274800F006
:1004A00051F90446042C3AD0204674E7002523E095
:1004B0002248C0886900244A515A884201D128B292
:1004C00000900098854215D069001F4A505A1F4974
:1004D00000F0B8F80190019801280BD069001A4A81
:1004E000505A1A49098800F0E3F80746042F01D052
:1004F000384650E7681C85B2112DD9DB00210F4822
:1005000000F062F90446042C01D0204643E70A4873
:1005100000F018F90446042C01D020463BE707E020
:10052000FFF7FAFE0446042C01D0204633E700BF53
:1005300000BF04202FE700000070000800740008CE
:100540001211FFFFEFEEFFFF1C0000200000002053
:10055000FFFF0000F3B585B007460425324804903C
:100560003248039000200290002400260190FFF7FB
:10057000A1FE02900298012804D12D4804902D4834
:1005800003900AE00298002804D12A4804902848E1
:10059000039002E0AB2007B0F0BD2749049800F0BB
:1005A00013F90546042D01D02846F4E7384606998C
:1005B00000F07EF80646042E01D03046EBE700241A
:1005C0001CE060001D49085AB84215D061001B4A62
:1005D000505A1B4900F036F80190019801280BD0C1
:1005E0006100164A505A1649098800F061F806461B
:1005F000042E01D03046CEE7601C84B2112CE0DB23
:10060000039800F09FF80546042D01D02846C2E764
:100610000021049800F0D8F80546042D01D02846A2
:10062000B9E72846B7E70000FF030108000001080A
:100630000070000800740008EEEE00001C000020AE
:1006400000000020FEB506460F4600251548029022
:1006500001200190144C204600900020FFF72AFE54
:100660000546AB2D00D1FEBDA802104940180090F0
:10067000681C8002891E44180CE0208802900298B1
:10068000B04206D120462038C08B3880002001902F
:1006900004E0241F0098801C8442EED800BF01981B
:1006A000E1E7000055550000000001080070000857
:1006B000F3B581B0074604260025164C1648009075
:1006C0000120FFF7F7FD0546AB2D00D1FEBDA802C6
:1006D00012494418681C8002891E4018009013E0DB
:1006E0002068401C0FD12046029900F06DF80646A4
:1006F000042E01D03046E9E73946A01C00F064F82A
:1007000006463046E2E7241D00988442E8D3802064
:10071000DCE7000000000108FF0701080070000886
:1007200070B505460E46002431462846FFF7C0FF47
:100730000446802C04D131462846FFF70BFF0446BF
:10074000204670BD30B5044604250B20000400F09F
:100750006FF80546042D17D10C48006902210843A3
:100760000A49086108464461006940210843074975
:1007700008610B20000400F05BF80546034800699F
:100780000221884301490861284630BD002002400B
:1007900004200C49C968C907C90F012901D10120EA
:1007A0000EE00849C9681022114201D0022007E07A
:1007B0000449C9680422114201D0032000E004204A
:1007C000704700000020024070B504460D46042624
:1007D0000B20000400F02CF80646042E11D10A4824
:1007E0000069012108430849086125800B200004A5
:1007F00000F01EF80646044800694008400002491F
:100800000861304670BD00000020024005480069C4
:100810008021084204D004480249486003484860E7
:10082000704700000020024023016745AB89EFCDEF
:1008300010B503460424FFF7ABFF044603E0FFF7BF
:10084000A7FF04465B1E012C01D1002BF7D1002B22
:1008500000D10524204610BDF0B50A460021002332
:10086000002400BF3DE001258D402B4615681D404A
:100870002C469C4234D11579012D02D01579022DD8
:1008800016D185684F000326BE40B5438560557973
:100890004E00B540866835438560858801268E40C8
:1008A000B5438580858896798E40B6B2354385807C
:1008B00005684F000326BE40B543056015794E001C
:1008C000B540066835430560C5684F000326BE4045
:1008D000B543C560D5794E00B540C6683543C5609F
:1008E000491C1029BFD3F0BDF0B5002300244D07EB
:1008F000EE0E1546B5402B46CD10AE000546203510
:10090000AD594E07F70E0F26BE40B543CE10B600C8
:1009100007462037BD51CD10AE003D46AD591D43B1
:100920002C46CD10AD003E467451F0BD00BFFEE731
:100930001CB50121480400F0D5F9C0200090012128
:1009400068460171817141710021C17169460920B8
:10095000C006FFF781FF1CBD10B50024FFF7E8FFBC
:1009600010212A2000F035F9142000F0B7FC0021F6
:100970000E2000F02EF9142000F0B0FC01212A20F6
:1009800000F027F9142000F0A9FC0D2000F00AF96E
:10099000044610BD10B500247748007801282DD1F9
:1009A00076480078002849D101207449087000F089
:1009B000F9F844B272480078002806D10120704945
:1009C00008707048047070480470002C17DB6D4884
:1009D00000214156002905DB002141568C4203DDF0
:1009E000047001E0674804706748002141560029FF
:1009F00004DB002141568C4200DA0470BBE0614800
:100A000000214156002908DA60425E4900228A56D8
:100A10005142884201DA5B4804705B48002141562C
:100A2000002901DB0470A6E06042574900228A5683
:100A300051428842E2DD544804709CE04F480078FF
:100A400001284AD102204D490870032000F0AAF87D
:100A500044B24E480078002806D101204B49087066
:100A60004B4804704B480470002C17DB48480021A9
:100A70004156002905DB002141568C4203DD0470FC
:100A800001E043480470434800214156002972DBCD
:100A9000002141568C426EDA04706CE03C48002123
:100AA0004156002908DA6042394900228A565142EB
:100AB000884201DA36480470364800214156002940
:100AC00001DB047057E06042324900228A565142ED
:100AD000884250DD2F4804704DE0284800780228F5
:100AE00049D1002025490870052000F05BF844B288
:100AF00029480078002806D1012027490870274896
:100B0000047027480470002C17DB2448002141564C
:100B1000002905DB002141568C4203DD047001E011
:100B20001E4804701E4800214156002923DB002185
:100B300041568C421FDA04701DE0184800214156CE
:100B4000002908DA6042154900228A56514288423B
:100B500001DA12480470124800214156002901DBD5
:100B6000047008E060420E4900228A5651428842D1
:100B700001DD0B48047010BD9F000020A000002084
:100B8000A7000020A1000020A2000020A800002053
:100B9000A3000020A4000020A9000020A500002040
:100BA000A600002030B50446642501F0AFFC3820D3
:100BB00002F0D2F9204602F0CFF901F0A7FC39206B
:100BC00002F0CAF902F0A2F8054601F0C1FC28467D
:100BD00030BD30B505460C4601F098FC382002F0D7
:100BE000BBF9284602F0B8F9204602F0B5F901F049
:100BF000AFFC30BD7047000000218278002A27D06A
:100C0000184A03231B02D21803789B109B00D1586B
:100C100002789207D30EFF229A400B46934319465F
:100C200042789207120E03789B07DB0E9A4011431D
:100C30000C4A03231B02D21803789B109B00D1504F
:100C40000278D306DB0E01229A40064B1A6007E0B9
:100C50000278D306DB0E01229A40024B80331A60E1
:100C60007047000000E100E010B5002819DA1A4AC8
:100C700003071B0F083B9B089B00D2588307DC0E21
:100C8000FF23A3409A438B071B0E8407E40EA34067
:100C90001A43114B0407240F083CA408A4001A515E
:100CA00018E00E4A03231B02D21883089B00D25877
:100CB0008307DC0EFF23A3409A438B071B0E840798
:100CC000E40EA3401A43054B032424021B19840895
:100CD000A4001A5110BD00001CED00E000E100E08E
:100CE00070470000002905D0054A52690243044BB1
:100CF0005A6104E0024A52698243014B5A617047CB
:100D000000100240002905D0054A92690243044BB5
:100D10009A6104E0024A92698243014B9A617047EA
:100D200000100240FEB50446002500260020019078
:100D300000900027504840680C2108400546002DCF
:100D400004D0042D05D0082D28D105E04B482060A3
:100D500027E04A48206024E0474840680F21890482
:100D600008400646444840680121090408400190B3
:100D7000B00C861C0198002803D1414870432060C4
:100D80000BE03D48C06A0007000F401C00903B4844
:100D90000099FFF7ADF97043206002E0374820600A
:100DA00000BF00BF34484068F021084005462D09C7
:100DB0003448475D2068F84060602F48406807214C
:100DC0000902084005462D0A2E48475D6068F84034
:100DD000A0602948006BFF2101310840884202D001
:100DE0002948E0600DE0244840680121890308405B
:100DF000884203D0A0684008E06002E0A068800854
:100E0000E0601D48006B40210840402802D01F4888
:100E1000206102E00120C00320611748006B10210F
:100E20000840102802D01548606101E02068606128
:100E30001148006B8007800F02D1A068A06119E003
:100E40000D48006B8007800F012802D12068A06147
:100E500010E00948006B8007800F022802D1800350
:100E6000A06107E00448006B8007800F032801D1D0
:100E70000248A061FEBD00000010024000127A008E
:100E800000093D00C4000020809FD50012800000B2
:100E900070470000002100202C4A126801231B0427
:100EA0001A432A4B1A6000BF284A126801235B04C8
:100EB0001A401046491C002803D105221202914213
:100EC000F2D1224A126801235B041A4201D00120A8
:100ED00000E00020012837D111221D4B1A601B4A67
:100EE00052681A4B5A601A4652685A601A4652683B
:100EF0003F231B049A43154B5A601A46526811232C
:100F00001B041A43114B5A601A46126803061A430F
:100F10000E4B1A6000BF0D4A126801235B061A428D
:100F2000F9D00A4A526892089200084B5A601A4651
:100F3000526802231A43054B5A6000BF034A5268A5
:100F40000C231A40082AF9D1704700000010024013
:100F50000020024010B51F480088401C1D49088031
:100F600001201D4908700A211A480088FFF7D6F8A9
:100F7000002902D101201949087064211548008810
:100F8000FFF7CCF8002902D10120154908707D2116
:100F9000C90010480088FFF7C1F8002902D10120DC
:100FA000104908700B4800880F49884210D1002072
:100FB000084908800D480078401C0C490870084614
:100FC00000781E2804D1002008700120084908700C
:100FD00010BD0000AA00002015000020160000200F
:100FE000170000201800002060EA000070000020B8
:100FF0007100002010B51B48006801210843194901
:101000000860084640681849084016494860084684
:101010000068164908401349086008460068012125
:10102000890488430F490860084640683F21090445
:1010300088430C4948600846C06A00090001C8623C
:101040000846006BFF21543188430649086308466F
:10105000406B40084000486300208860FFF71AFF9B
:1010600010BD0000001002400CB8FFF8FFFFF6FEB4
:1010700010B500240649074800F024F8002806D0DF
:10108000044800F0D1F8C4B2204601F0F9FB10BDCD
:101090000501050000380140002904D00268012341
:1010A0001A43026003E0026852085200026070476F
:1010B000002A03D083680B43836002E083688B437C
:1010C0008360704770B502460B460024002100255E
:1010D00000201E04350ED9B201268E403146012D66
:1010E00002D11668314006E0022D02D15668314027
:1010F00001E0966831401C0C0126A6403446D669B2
:101100003440002903D0002C01D0012000E0002051
:1011100070BDF8B503460024002600960025002087
:1011200018460E04340ECEB200960127009EB7403A
:101130003D46022C01D1001D02E0032C00D10830F5
:10114000002A03D006682E43066002E00668AE431C
:101150000660F8BDF0B589B004460D4600270020B2
:10116000089000262068400840002060666803213F
:101170000903304688430646A86806436660266829
:1011800026480640E9686868084329690843064319
:101190002660A6680321090230468843064668692E
:1011A0000643A66001A8FFF7BDFD1D48844202D199
:1011B0000798089001E00398089020680121C9036E
:1011C00008420CD02968089A5000FEF791FF0746A4
:1011D0002968089A5000FEF78BFF0E4609E029683F
:1011E0000898FEF785FF074629680898FEF780FFF4
:1011F0000E4628684008B04200D87F1C20680121B4
:10120000C903084206D03807460F3846054908404A
:1012100030430746A78109B0F0BD0000F3E9FFFFA6
:1012200000380140F0FF00000146888CC005C00D69
:10123000704730B47446641E2578641CAB4204D3F6
:10124000635D5B00E31830BC18471D46F8E702E019
:1012500008C8121F08C1002AFAD170477047002041
:1012600001E001C1121F002AFBD17047F72001499C
:10127000087070471A00002006490968087005497F
:101280000968491C034A116003490978491C024A4C
:1012900011707047080000200400002070B5064659
:1012A0000C46154605E02178641C304600F008F82D
:1012B00006462846691E8DB20028F4D1304670BD1E
:1012C00010B50246101213464B401B06DB0D024CB4
:1012D000E35A584010BD0000EC32000801E0411E06
:1012E00088B20028FBDC704720480078002819D11C
:1012F0001F48008AFF210131084000120ED11D480D
:101300000088401C1B490880084600880A282BDDFD
:101310000020088001201549087025E000201549AB
:10132000088021E01148007801281DD11048008A6A
:10133000FF21013108400012012812D10D48008818
:10134000401C0C490880084600880A280CDD002053
:1013500008800649087008480068401C0649086073
:1013600002E0002003490880704700009E00002032
:10137000000400489C0000206800002070B5002692
:10138000002405E000206100784A5052601CC4B27D
:10139000132CF7DB002000F0FFF806467448864265
:1013A0006CD1022000F0F8F8724908600846016824
:1013B000062001F021FA042000F0EEF86E490860E2
:1013C000084601680A2001F017FA062000F0D6F856
:1013D000C5B229461A2001F021FA072000F0CEF804
:1013E000C5B229461B2001F019FA082000F0C6F802
:1013F000C5B229461C2001F011FA102000F0BEF8F9
:10140000C5B229461D2001F009FA0C2000F0B6F8FB
:10141000C5B229461E2001F001FA092000F0AEF8FD
:10142000C5B22946202001F0F9F90A2000F0A6F8FB
:10143000C5B22946212001F0F1F90B2000F09EF8F9
:10144000C5B22946222001F0E9F90D2000F096F8F6
:10145000C5B22946232001F0E1F90F2000F08EF8F3
:10146000C5B22946242001F0D9F90E2000F086F8F3
:10147000C5B22946252001F0D1F975E000203D498B
:10148000086008460168062001F0B6F900203A49D4
:101490000860084601680A2001F0AEF908211A2008
:1014A00001F0BCF901211B2001F0B8F908211C2032
:1014B00001F0B4F91E211D2001F0B0F903211E2016
:1014C00001F0ACF95A21202001F0A8F90F212120C8
:1014D00001F0A4F90F21222001F0A0F9012123201D
:1014E00001F09CF90121242001F098F91421252014
:1014F00001F094F91F480168022000F092F81E489C
:101500000168042000F08DF80821062000F07EF824
:101510000121072000F07AF80821084600F076F84B
:101520001E21102000F072F803210C2000F06EF84C
:101530005A21092000F06AF80F210A2000F066F80D
:101540000F210B2000F062F801210D2000F05EF861
:1015500001210F2000F05AF814210E2000F056F857
:101560000349002000F05DF870BD0000200100205C
:101570004D3C2E1F680000206C00002038B504464A
:101580000021009155214902611888B26946FFF790
:1015900059F86846008838BD38B504460025002152
:1015A000009155214902611888B26946FFF74AF84F
:1015B000684600880504552149026118491C88B213
:1015C0006946FFF73FF8684600880543284638BD5E
:1015D00010B50B480078012811D10A48016806208F
:1015E00001F00AF907480168022000F01AF80648DD
:1015F0000168042000F015F800200149087010BDB2
:1016000071000020680000206C00002070B50446C6
:101610000D4655214902611888B22946FFF780F826
:1016200070BD70B504460D46290C55225202A21811
:1016300090B2FFF775F8A9B255225202A218521CB7
:1016400090B2FFF76DF870BD10B5254800780028FE
:101650001FD12448008A0121C9030840C01314D1B6
:1016600021480078401C20490870084600780A2864
:1016700035DB01201A4908701C2001F093F81B4942
:10168000088000201849087029E0002016490870D9
:1016900025E01448008A0121C9030840C0131BD16A
:1016A0000120134908701C2001F07CF80F490880C4
:1016B00008460021415E002905DB0088C1B20420F4
:1016C00001F0ACF80BE0094800884042E030C1B2BC
:1016D000042001F0A3F802E000200549087010BDC5
:1016E00097000020000800489B0000209800002080
:1016F0005D00002010B5FC480078012820D1FB488F
:10170000007800281DD1FA48008A012149030840C9
:1017100040130128F2D1F648008A4900084080139E
:101720000128EBD1F1490870F2480088082188436C
:10173000F04908800846008810218843ED49088058
:10174000F6E1EA48007801287ED1E948008A0121C3
:1017500049030840401338D1E548008A4900084051
:101760008013012831D10220E0490870E148408807
:10177000FF2101310843DF494880084640880121A4
:1017800049028843DB494880084640880121890294
:101790008843D84948800120D74948700020087103
:1017A0000870D6480021415E0029C9DD1A2000F0EA
:1017B000F9FFD24900228A5E9042C1D1CD4800880B
:1017C00008210843CB490880B2E1C948008A0121B9
:1017D0004903084040130128B2D1C548008A490096
:1017E00008408013ACD10320C0490870C14840882C
:1017F000012149020843BF49488008464088FF212B
:1018000001318843BB49488008464088012189024C
:101810008843B84948800020B749487001200871C2
:1018200000200870B5480021415E002988DA1B209D
:1018300000F0B8FFB14900228A5ED042C4D1AD4861
:1018400000881021084300E002E0AA4908806FE107
:10185000A648007802281FD1A548008A0121490323
:101860000840401314D1A248008A49000840801360
:101870000ED1A3480088401CA14908800846008872
:101880000A28A1DD002008800420984908704FE153
:1018900000209B4908804BE19448007803281FD121
:1018A0009348008A012149030840401314D190480D
:1018B000008A4900084080130ED191480088401CDE
:1018C0008F490880084600880A28C0DD002008806B
:1018D0000620864908702BE100208949088027E10D
:1018E00082480078042823D18148008A01214903D5
:1018F00008404013012809D17D48008A490008406A
:10190000801303D105207949087011E17848008AD5
:10191000012149030840401399D17548008A4900C4
:1019200008408013012892D1002070490870FFE020
:101930006E48007805285CD16D48008A0121490372
:10194000084040130128A2D16948008A4900084094
:10195000801301289BD169480088401C00B2674968
:10196000088068480068401C664908606348002198
:10197000415E002911DD1A2000F014FF5F490022AA
:101980008A5E904209DA1A2000F00CFF5B49088059
:101990005C480068401E5B4908605A4801680A209C
:1019A00000F02AFF55480088002802D10120534941
:1019B000088052480021415E002905DB0088C1B241
:1019C000042000F02BFF07E04C4800884042E03044
:1019D000C1B2042000F022FF0020444908704649AB
:1019E00048700871434800880821884341490880AD
:1019F0009EE03E480078062822D13D48008A012119
:101A00004903084040130AD13948008A4900084078
:101A10008013012803D107203449087088E0344836
:101A2000008A0121490308404013012807D13048AA
:101A3000008A4900084080137AD12C49087077E069
:101A40002A480078072873D12948008A01214903D0
:101A50000840401301286BD12548008A49000840FE
:101A60008013012864D127480068401C254908607C
:101A700022480021415E002905DD0088401E00B299
:101A80001E49088018E01D480021415E002913DA34
:101A90001B2000F087FE194900228A5E51428842CD
:101AA0000ADD16480088401E00B214490880154817
:101AB0000068401E13490860124801680A2000F0BF
:101AC0009BFE0E480088002802D1401E0B4908806A
:101AD0000A480021415E002916DB0088C1B20420BB
:101AE00000F09CFE18E023E0970000209A00002000
:101AF00000080048200100205D0000209800002020
:101B0000C20000206C0000200A4800884042E030FB
:101B1000C1B2042000F082FE002007490870074986
:101B200048700871064800881021884304490880DD
:101B300010BD0000980000209A0000205D000020E9
:101B40002001002010B534480078002811D1334816
:101B5000008A012149030840401301285AD12F4827
:101B6000008A490008408013012853D12A4908708F
:101B700050E029480078012813D12848008A012123
:101B800049030840401345D12448008A49000840D1
:101B900080133FD1022020490870002020490860AE
:101BA00038E01D480078022834D11D480068401CE8
:101BB0001B4908601948008A012149030840401365
:101BC000012827D11548008A4900084080130128C0
:101BD00020D10A2112480068FEF78AFA10490860ED
:101BE0001E2000F0DFFD0E49096848431E2806D27A
:101BF0000C480088802108430A49088005E009480C
:101C00000088802188430749088000200249087025
:101C10000349086010BD00008C0000200008004847
:101C2000880000202001002010B51648008AFF21FE
:101C3000013108400012012818D113480088401CC7
:101C400011490880242000F0ADFD3C2148430E4995
:101C50000988884214DC0D48008801218902084364
:101C60000A49088000200849088009E00020064948
:101C700008800648008801218902884303490880BA
:101C800010BD0000000400487A0000202001002060
:101C900010B53548008A0121490308404013012846
:101CA00054D13148008A49000840801301284DD1A1
:101CB0002E48007800280DD12D48008A891108404F
:101CC000001203D10120294908702BE00220274986
:101CD000087027E025480078012810D12448008AA0
:101CE000FF2101310840001201281BD12148008842
:101CF000401C2049088002201C49087012E01B4843
:101D0000007802280ED11A48008AFF2101310840CC
:101D1000001207D117480088401C1649088001208E
:101D200012490870252000F03DFD124909888842BB
:101D300018DC114800880121490208430E49088037
:101D400000200C490880094908700BE0002009496F
:101D50000880064908700848008801214902884324
:101D60000549088010BD00000008004880000020E0
:101D7000000400487E0000202001002010B52E48FD
:101D8000008A012149030840401347D12A48008AAC
:101D900049000840801341D128480088401C274949
:101DA00008802748007800280FD12648008A0121A2
:101DB00049020840401211D023480078401C2249B3
:101DC000087001201E49087008E01E48008A0121A1
:101DD00049020840401201D119490870212000F041
:101DE000E1FC16490988884225DC1748007801285B
:101DF00006DD16480088022108431449088005E0E2
:101E000012480088022188431049088000200B49AD
:101E100008800D4908700A4908700CE00020074945
:101E2000088009490870064908700848008802219E
:101E300088430649088010BD000800488200002041
:101E400085000020000400488400002020010020BC
:101E50003248008AFF2101310840001201282DD1AB
:101E60002F48008A490108404013012805D12C4819
:101E7000008A4900084080130DD02948008A0121BA
:101E800049030840401319D12548008A49000840F9
:101E90008013012812D123480088401C2149088062
:101EA00008460088022838DB1F4800884021084384
:101EB0001D49088000201B4908802EE01748008A31
:101EC000FF2101310840001224D11548008A490140
:101ED00008404013012805D11148008A49000840F4
:101EE00080130DD00E48008A012149030840401399
:101EF00010D10B48008A490008408013012809D1FD
:101F00000948008840218843074908800020054986
:101F1000088002E000200349088070470004004860
:101F2000000800487C000020200100201848008A9A
:101F300001214903084040131FD11548008A490078
:101F40000840801319D11348008A891108400012F3
:101F5000012812D110480088401C0F49088008460B
:101F60000088022812DB0D480088042108430B4931
:101F7000088000200849088008E000200649088001
:101F800006480088042188430449088070470000FF
:101F900000080048000400487800002020010020CC
:101FA00010B51A48008A012149030840401323D183
:101FB0001648008A4900084080131DD11448008A41
:101FC00089110840001217D112480088401C11499D
:101FD0000880222000F0E6FB0A2148430D490988C9
:101FE000884212DC0C480088202108430A490880F6
:101FF00000200849088008E00020064908800648BB
:102000000088202188430449088010BD000800484A
:1020100000040048760000202001002010B532485E
:10202000008A012149030840401301284ED12E485F
:10203000008A490008408013012847D12B48008AB4
:1020400089110840001241D129480088401C2849C4
:1020500008802848007800280FD12448008A0121F0
:1020600049020840401211D023480078401C224900
:10207000087001201F49087008E01C48008A0121EF
:1020800049020840401201D11A490870202000F08E
:1020900089FB17490988884225DC174800780328FE
:1020A00006DD16480088012108431449088005E030
:1020B00012480088400840001049088000200C4960
:1020C00008800D4908700B4908700CE00020084991
:1020D00008800949087007490870084800884008C6
:1020E00040000649088010BD000800480004004870
:1020F00072000020750000207400002020010020E4
:1021000070B50024C0480078002811D1BF48008A6B
:102110000121490308404013012808D1BB48008A27
:102120004900084080130128F7D1B749087069E1D8
:10213000B548007801282CD1B448008A0121490310
:1021400008404013F3D1B148008A49000840801389
:10215000EDD10220AC490870AD4800780028E6D1E6
:102160000120AB4908700020AA490870AA490870EC
:10217000AA490870AA490870AA490870AA490870B3
:10218000AA490870AA490870AA490870AA490870A3
:1021900038E19D4800780228C9D1A8480068401C51
:1021A000A6490860A6480088262108420DD00020D4
:1021B000A2490860A349088093490870A048008894
:1021C000FF21013188439E4908809048008A0121FF
:1021D00049030840401301287ED18C48008A4900F9
:1021E000084080130128F7D196480088401C954983
:1021F000088008460088C8286FDB002008808F49C7
:102200000860814908708E480088FF2101318843A9
:102210008B49088008464088012189020843884983
:102220004880084640880121490288438449488003
:1022300008464088FF2101318843814948800020B9
:1022400081494870087172480078012845D1724868
:1022500000214156002917DB704800214156002912
:1022600008DB6D49002008566C4900228A56801A06
:1022700084B213E0684900200856684900228A5653
:102280005142401884B209E0644800214156484256
:10229000614900228A565142401A84B21421614396
:1022A0000846C917490E0918CC11E1B2182000F0F0
:1022B000B5FA5B4800214156002919DB5948002135
:1022C000415600290ADB564900200856554900228C
:1022D0008A56801A84B215E069E06BE0504900200C
:1022E0000856504900228A565142401884B209E0EB
:1022F0004C48002141564842494900228A565142E1
:10230000401A84B2142161430846C917490E0918BE
:10231000CC11E1B2172000F081FA43480021415668
:10232000002917DB414800214156002908DB3E49BE
:10233000002008563D4900228A56801A84B213E0D4
:10234000394900200856394900228A56514240181E
:1023500084B209E035480021415648423249002202
:102360008A565142401A84B2142161430846C91763
:10237000490E0918CC11E1B2162000F04FFA0020E6
:1023800023490870234908702349087023490870BD
:1023900023490870234908702349087023490870AD
:1023A00023490870234908702349087002E000207F
:1023B000244908802548008AFF2101310840001285
:1023C000012806D100201D4908601E4908800E49D9
:1023D00008701F4919480068FDF78AFE054623204A
:1023E00000F0E0F985420DD315480088FF21013146
:1023F00008431349088000201049086011490880EB
:102400000149087070BD00009600002000080048D7
:102410009F000020A0000020A1000020A2000020BA
:10242000A3000020A4000020A5000020A60000209A
:10243000A7000020A8000020A90000209000002094
:1024400020010020940000205D00002000040048CE
:102450007017000010B5FEF7D9F9FDF77BFF10BD2E
:102460002648008AFF21013108400012012809D1C5
:1024700023484088C9000843214948800120214958
:10248000C87009E01E4840880121C90288431C49E0
:10249000488000201B49C8701848008A0121490261
:1024A00008404012012809D115484088C900084356
:1024B0001349488001201349887009E0104840887A
:1024C0000121090388430E49488000200D49887086
:1024D0000B480088002808D001200A498871002094
:1024E000C87101200849087007E00020054988717B
:1024F0000120C8710020044908707047000400489A
:10250000200100205D0000201900002000B580207F
:102510000E49088140200921C90688610A20FEF77A
:10252000DDFE80200921C90688610A20FEF7D6FE5B
:102530004020064908810A20FEF7D0FE802003498A
:1025400008810A20FEF7CAFE00BD000020000048F6
:1025500000B580200E4908810A20FEF7BFFE40200A
:102560000B4908810A20FEF7B9FE80200921C9061F
:1025700088610A20FEF7B2FE40200921C906886161
:102580000A20FEF7ABFE80200149088100BD000053
:10259000200000481CB5012103208004FEF7A2FBA7
:1025A00007204003009000216846017181710121DC
:1025B00041710021C17169460548FEF74DF90320BC
:1025C0000002009069460348FEF746F91CBD000072
:1025D000000800480004004830B50025002408E049
:1025E0000748005D012802D1A0402843C5B2601C05
:1025F000C4B2082CF4DB284600F028F830BD0000F7
:102600005D0000201CB501218804FEF76BFB07204C
:102610004003009001216846017100218171012170
:1026200041710021C17169460748FEF715F9012083
:10263000C00305498861401088614010886100200E
:1026400000F004F81CBD0000000400480122D20381
:10265000134B1A8152101A81C043002115E08022C9
:10266000104204D092010E4B203B9A6103E00122FC
:1026700052030B4B1A8140000122D203084B1A81EE
:10268000074B203B9A614A1CD1B20829E7DB0122A3
:102690009203034B1A81024B203B9A617047000062
:1026A0002004004800F0A2FCFFF7D4FEFEF766FE0F
:1026B000FEF7DCFDFFF7A6FF00F0C0FC00F05CFDBC
:1026C000FFF768FFFEF748F941E02148007801284C
:1026D00008D100201E490870FFF70CF8FEF7B4FF80
:1026E00000F020FD1B48007801280AD1002019497C
:1026F0000870FFF771FFFFF7ABFBFFF723FAFFF757
:10270000FFFC1548007801280CD100201249087000
:10271000FFF7A6FEFFF744FC00F0E2FBFEF73AF9F4
:10272000FEF7E2FD0D48007801280CD100200B498E
:102730000870FFF773FCFFF721FBFFF7F7FBFFF7CC
:1027400073FAFFF7A5FA00F0A7FAFEF741FFBCE71E
:10275000150000201600002017000020180000209F
:1027600001460A46C80F801840104000014B185A15
:10277000704700002001002010B5014600200A46E5
:10278000CB0F9B185B105B00054CE05A0004CB0F8D
:102790009B185B105B1C5B00E35A181810BD00000F
:1027A0002001002030B50146002200230024084605
:1027B000CD0F2D186A10CD0F2D186D106D004D1B0B
:1027C000EBB2002B04D15000044D285A041203E050
:1027D0005000024D285AC4B2204630BD20010020CE
:1027E00010B50246C30F9B185B105B00014CE15211
:1027F00010BD00002001002030B50B0C0246C40FB4
:10280000A41864106400044D2B53C30F9B185B1075
:102810005B1C5B00E95230BD2001002070B50A4608
:10282000002100240346C50FED186910C50FED18EF
:102830006D106D00451BECB2002C0ED14B000F4DFE
:10284000EB5ADBB24D000D4E73534B003546EB5A3D
:1028500015022B434D0073530EE04B00074DEB5A0E
:10286000FF252D022B404D00044E73534B0035467F
:10287000EB5A13434D00735370BD0000200100203C
:10288000F1B582B000250024F94FFA49FA4A1278CE
:10289000029888540120F94908700020F8490880FE
:1028A000F848007800283AD1F3480078002811D180
:1028B000F048F1490978405CF3490978884205D12C
:1028C000ED480078401CEC490870D0E10020E9494F
:1028D0000870CCE1E84800780128F6D1E548407856
:1028E000032808D10120E7490870E3480078401C1C
:1028F000E1490870BBE1DF484078062808D1022092
:10290000E0490870DC480078401CDB490870AEE103
:102910000020D9490870D74908704870A7E1D94804
:102920000078012859D1D4480078401CD249087059
:10293000084600780828C8D1CE4880780002CD49E2
:10294000C978401885B2CB4800790002C949497955
:10295000401884B2102D2FDB232D2DDA142C2BDA06
:10296000012C29DB2846103885B21420401BA042D8
:1029700002DA1420401B84B26800C719C2480078EC
:10298000FEF77AFC0320FEF777FC6106080EFEF7DF
:1029900073FC00260BE07100795A0812FEF76CFCFC
:1029A0007100795AC8B2FEF767FC701CC6B2A64225
:1029B000F1DB0120B5490870002404E00020AD4996
:1029C0000855601C84B20A2CF8DB00240025002086
:1029D000A9490870AB49087049E1AA480078022863
:1029E00088D1A5480078401CA349087008460078A3
:1029F00008288CD19F48807800029E49C9784018E9
:102A000085B29C48007900029A494979401884B2FD
:102A1000232D7DDA102D7BDB2846103885B22B0064
:102A2000FEF707FC130B0C0D0E22364A5E5F606149
:102A3000626364809AACC6E0FA00EDE0ECE0EBE0A3
:102A40000620FFF78DFEA0420DD021460620FFF79D
:102A5000C7FE0620FFF790FE8D4908600846016812
:102A60000220FEF7DEFDD7E00820FFF779FEA04246
:102A70000DD021460820FFF7B3FE0620FFF77CFEAD
:102A800083490860084601680220FEF7CAFDC3E0DA
:102A90000A20FFF765FEA0420DD021460A20FFF76D
:102AA0009FFE0A20FFF768FE7A4908600846016821
:102AB0000420FEF7B6FDAFE00C20FFF751FEA04268
:102AC0000DD021460C20FFF78BFE0A20FFF754FEA5
:102AD00070490860084601680420FEF7A2FD9BE0EB
:102AE0009AE099E098E097E096E095E01A20FFF7E9
:102AF00037FEA04215D021461A20FFF771FE1A209A
:102B0000FFF750FE014601900620FEF77FFD00E032
:102B10009DE01B20FFF746FE014601900720FEF7CF
:102B200075FD79E01C20FFF71BFEA04213D0214663
:102B30001C20FFF755FE1C20FFF734FE01460190D4
:102B40000820FEF763FD1D20FFF72CFE01460190D3
:102B50001020FEF75BFD5FE01E20FFF701FEA042A4
:102B60000BD021461E20FFF73BFE1E20FFF71AFE6A
:102B7000014601900C20FEF749FD4DE02020FFF7B3
:102B8000EFFDA04213D021462020FFF729FE202090
:102B9000FFF708FE014601900920FEF737FD2120CE
:102BA000FFF700FE014601900A20FEF72FFD33E0FB
:102BB0002220FFF7D5FDA04213D021462220FFF7A7
:102BC0000FFE2220FFF7EEFD014601900B20FEF7DD
:102BD0001DFD2320FFF7E6FD014601900D20FEF7C5
:102BE00015FD19E02420FFF7BBFDA04213D02146BC
:102BF0002420FFF7F5FD2420FFF7D4FD01460190C6
:102C00000F20FEF703FD2520FFF7CCFD01460190C4
:102C10000E20FEF7FBFC00BF00BF1B480078FEF74C
:102C20002BFB0620FEF728FB12498878FEF724FBD1
:102C30001049C878FEF720FB0E490879FEF71CFB07
:102C40000C494879FEF718FB012010490870002450
:102C500004E0002007490855601C84B20A2CF8DB08
:102C60000024002500200449087006490870FEBDB4
:102C700020010020060100200C0000200F00002091
:102C8000100000200D0000201A0000200E0000207F
:102C9000680000206C00002010B500241548007862
:102CA000012825D1002013490870134802781349E0
:102CB0001348FEF7F3FA0446E0B2FEF7DDFA2012FD
:102CC000FEF7DAFA0D480F49086000210E48FDF7BB
:102CD0005BFA094801780C48FDF7EAFA01210A4835
:102CE000FDF752FA054807490860002002490870BC
:102CF00010BD00000E00002004000020D4000020C1
:102D0000FFFF0000080000201C00024000B5002268
:102D10008020234908810A20FEF7E0FA402009219B
:102D2000C906886108460068032109038843092110
:102D3000C906086000231BE00A20FEF7CFFA8020B6
:102D4000174908810A20FEF7C9FA80200921C9061F
:102D500088610A20FEF7C2FA5006020E0920C0065A
:102D6000008A4021084201D0501CC2B2581CC3B294
:102D7000082BE1DB80200A4908810920C006006891
:102D80000321090388430921C90608600846006831
:102D90000D21090308430921C9060860104600BD3A
:102DA0002000004870B5002500264748007800281C
:102DB0001BD14648415F00290FDB0A210246505FC4
:102DC000FDF7ACF9424908700A21404A505FFDF70F
:102DD000A5F9C8B23E49487074E01B203C49087010
:102DE0003A480088404248706CE03A480078002831
:102DF00003D0384800780A285FD10120354908708F
:102E000000240AE0344800880121A140084202D091
:102E1000681CC5B22646601CC4B20B2CF2DB012D27
:102E200015D1002410E02C4800880121A14008425F
:102E300008D00E20264908700846447060B2274921
:102E4000087003E0601CC4B20B2CECDB3AE02349B1
:102E500000200856B04215D1002410E01E4800881A
:102E60000121A140084208D00E20194908700846E7
:102E7000447060B21949087003E0601CC4B20B2CA6
:102E8000ECDB1FE0002415E0134800880121A1407D
:102E900008420DD0114900200856A04208DA0E2041
:102EA0000B4908700846447060B20C49087003E092
:102EB000601CC4B20B2CE7DB04E006480078401C21
:102EC0000449087070BD000019000020980000201F
:102ED0005B000020C100002020010020C000002075
:102EE00010B5FFF75FFF17480078002811D116488A
:102EF00000781649085C1649087013484078134951
:102F0000085C1349487001201249C871002088717B
:102F100014E00C480078012810D10B4800780B49C8
:102F2000085C0B490870084840780849085C084963
:102F3000487000200749C8710120887100F048F8E6
:102F400010BD0000190000205B0000203E000020A2
:102F5000100100205D00002000B5034600221EE0A5
:102F600080201A490881184690408021084204D0E8
:102F700040200921C906886102E0402013490881E8
:102F80000A20FEF7ABF980200921C90688610A20D2
:102F9000FEF7A4F980200D490881501CC2B2082A0E
:102FA000DEDB0A20FEF79AF940200921C906886174
:102FB0000A20FEF793F980200921C90688610A20BA
:102FC000FEF78CF980200149088100BD20000048EF
:102FD00000B5402000F06CF90349C02000F072F900
:102FE000882000F065F900BD1001002010B57D219A
:102FF000C9000F480068FDF77BF804460D4884427D
:1030000001D901200EE02002000A401E0A49486151
:103010000321081FFDF728FE0020074988610720CB
:1030200008610020002801D000BFFEE710BD0000AD
:10303000AC000020FFFFFF0000E000E01CB5012114
:103040008805FDF74FFEC020009001216846017100
:10305000817141710021C17169460248FDF7FCFB95
:103060001CBD00000014004800B540200A498861DA
:1030700080208861012000F00FF9402006492031AE
:103080000881012000F008F98020034920310881DF
:10309000012000F001F900BD0014004800B54020F7
:1030A0000B49088180200A4920398861012000F0FD
:1030B000F3F84020064920398861012000F0ECF83F
:1030C000802003490881012000F0E6F800BD0000DF
:1030D0002014004830B5034600241BE0DD07ED0F47
:1030E000002D03D040200E49886103E040200C49A8
:1030F0002031088180200A498861012000F0CCF845
:103100008020074920310881012000F0C5F85B10BC
:10311000601CC4B2082CE1DB012000F0BDF830BD1A
:10312000001400480F490978012919D10E4909886E
:10313000491C0D4A118011460988642910DB0021C1
:103140001180084A1170094A1170094A1170002053
:1031500004E00021074A1154411CC8B20A28F8DBD8
:10316000704700000F000020100000200C0000201D
:103170000D0000200601002000B595B01B2108A815
:1031800001740121417481740CA8FDF735FD012102
:103190003C48FDF7A7FD01218803FDF7B3FD01229F
:1031A0000921C806FDF7A0FB01220A210920C0065B
:1031B000FDF79AFB022108A8017603214176002140
:1031C00081760121C17648020D900DA90920C00623
:1031D000FDF742FB012080020D900DA90920C006D9
:1031E000FDF73AFB2848FCF7DDFF28480190284806
:1031F0000290102003900820049000200590802069
:1032000006900020079008900990012000030A9082
:1032100000200B9001A91C48FDF72AF80122022189
:103220001948FDF71BF84B20C0010F9000201090AB
:103230001190129014900C2013900FA91348283865
:10324000FDF788FF0122134910482838FDF761FF78
:10325000012280210D482838FDF72AFF01210B4863
:103260002838FDF719FF2020FCF788FF0A2108A85D
:10327000017402214174012181740CA8FDF7BCFC8A
:1032800015B000BD010002001C00024028380140BA
:10329000D40000200501050007E0082101E04A1ED6
:1032A00091B20029FBDC421E90B20028F5DC704789
:1032B00010B50446FFF7D8FE2046FFF70BFFFFF7D7
:1032C000EDFE10BD70B506460D46FFF7CDFE30464B
:1032D000FFF700FF002404E0285DFFF7FBFE601C01
:1032E000C4B2102CF8DBFFF7D9FE70BD0000C1C0DE
:1032F00081C1400101C3C003800241C201C6C006B2
:10330000800741C70005C1C581C4400401CCC00C81
:10331000800D41CD000FC1CF81CE400E000AC1CA41
:1033200081CB400B01C9C009800841C801D8C01831
:10333000801941D9001BC1DB81DA401A001EC1DEB1
:1033400081DF401F01DDC01D801C41DC0014C1D4A1
:1033500081D5401501D7C017801641D601D2C012C1
:10336000801341D30011C1D181D0401001F0C03091
:10337000803141F10033C1F381F240320036C1F6B1
:1033800081F7403701F5C035803441F4003CC1FC81
:1033900081FD403D01FFC03F803E41FE01FAC03A41
:1033A000803B41FB0039C1F981F840380028C1E871
:1033B00081E9402901EBC02B802A41EA01EEC02EB1
:1033C000802F41EF002DC1ED81EC402C01E4C024A1
:1033D000802541E50027C1E781E640260022C1E2C1
:1033E00081E3402301E1C021802041E001A0C060D1
:1033F000806141A10063C1A381A240620066C1A6B1
:1034000081A7406701A5C065806441A4006CC1AC80
:1034100081AD406D01AFC06F806E41AE01AAC06A40
:10342000806B41AB0069C1A981A840680078C1B830
:1034300081B9407901BBC07B807A41BA01BEC07EB0
:10344000807F41BF007DC1BD81BC407C01B4C074A0
:10345000807541B50077C1B781B640760072C1B2C0
:1034600081B3407301B1C071807041B00050C19010
:10347000819140510193C053805241920196C056B0
:10348000805741970055C19581944054019CC05C80
:10349000805D419D005FC19F819E405E005AC19A40
:1034A000819B405B0199C059805841980188C04870
:1034B00080494189004BC18B818A404A004EC18EB0
:1034C000818F404F018DC04D804C418C0044C184A0
:1034D000818540450187C047804641860182C042C0
:1034E000804341830041C181818040400C35000808
:1034F00000000020D40000004E120008E035000853
:10350000D4000020740400005E12000800000000D7
:1035100000000000D40000200000000000000000B7
:10352000000000000000000000AA01AA02AA03AAED
:1035300004AA05AA06AA07AA08AA09AA0AAA0BAAFF
:103540000CAA0DAA0EAA0FAA10AA3F065B4F666D21
:103550007D077F6F777C395E79713D760E38375CF9
:103560007367503E6E400000000000000000000045
:10357000000000000000000000000000000000004B
:10358000000000000000000000000000000000003B
:10359000000000000000000000000000000000002B
:1035A000000000000000000000000000000000001B
:1035B0000000000000000000006CDC0200000000C1
:1035C000000000000102030406070809FF000000D4
:1035D00000000000010203040102030406070809B9
:04000005080000C12E
:00000001FF
